:400000000040002011000000390600003906000080B500AF00F014FB80B500AF234B12221A6001F09BFE224B181C01F035FC012001F0A4FE0C2001F061FC1E4B1E4A1A6028
:400040001E4B8022D2051A601D4B1D4A126802210A431A601B4B1C4A1A601C4B1B4A126808218A431A60FA23DB00181C01F092FC174B181C01F090FD164BC02292001A60E7
:40008000154B164A1A60164BA62212061A60154B00221A60144B40221A60084B8022D2051A60024B00221A60BD4680BD30001040001BB70004010B40060000800C020B4024
:4000C00078002E407C002E406A2D00006CF02E40DC050000000301400000014040FF008008010B4000010B401801014080B582B000AF72B6414B00221A60FB1D00221A7086
:4001000023E0FB1D1A78131C5B009B185B003C4A9B183B603B681A78597809020A43997809040A43DB781B061343191C3B681A795B791B0213439BB2081C191C00F004FBCC
:40014000FB1D1A78FB1D01321A70FB1D1B78012BD7D92C4A2C4B101C191C00F005FB2B4B03221A602A4B00221A602A4B00221A60294B2A4A1A602A4B802212061A60294B85
:40018000992212041A60284B802292021A60274A264B1B78DBB202210B43DBB21370244A234B1B78DBB23C218B43DBB214210B43DBB213701D4A1D4B1B78DBB216210B4393
:4001C000DBB213701B4B81221A601B4B8022D2031A601A4B802212021A60194B01221A60184BC1221A60184B184A1A60FFF714FF00F0FAFABD4602B080BDC0466CF02E40D1
:40020000002301000C2301001823010000030240000002400800044020500F400400990024500F4030500F4038500F4000700F4001700F4000020440080204400C02044031
:400240001802044000030440080304400600D80010B5064C2378002B07D1054B002B02D0044800E000BF0123237010BD6004002000000000D022010008B5084B002B03D0B6
:400280000748084900E000BF07480368002B00D108BD064B002BFBD09847F9E700000000D022010064040020C80000200000000080B500AF012000F05DFB012000F098FB2A
:4002C00062B601F0E9F801F0F9F8064B181C00F043FD054B181C00F0CBFB00F07FF9BD4680BDC04611050000D904000090B583B000AFFFF7DDFF01F093FA00F069F801F0E9
:400300004DFA00F08FF9021C2D4B1A602C4B1A682C4B1B68D31A2C4A934205D900F0B0F8274B1A68274B1A6029E002F0D3F9FC1D032002F0C7F9031C2370BC1D01F0B5FA8D
:40034000031C2370FB1D1B78032B0CD103F00AFD031E042B04D003F005FD031E062B09D101F048FC06E003F0FDFC031E022B01D001F026FCBB1D1B78181C01F09AFA00F089
:4003800051F9021E0E4B1B689A42CED00F4B1B78002B13D000F03CFD00F076FA00F08CFA012000F0E7FA012000F022FB002000F007FB002000F040FB01F052FC9BE7C0463F
:4003C0007C04002080040020E70300009104002090B583B000AF00237B6001F08BF9022001F096F9BC1C002001F0B6F9031C2380BB1C00229A5ED423DB009A422EDD1A4B75
:400400001B78002B26D0194B1B78002B08D0174B00221A7000F006F9021C154B1A6019E000F000F9021C134B1A60124B1A68104B1B68D31A7B607B68002B07D00E487968A0
:4004400001F078FF031CDAB20C4B1A70094B1A68074B1A60044B00221A7002E0024B01221A70BD4603B090BDCC000020CD000020880400208C04002060EA000084040020E5
:4004800090B583B000AF114B1B78002B1BD03B1D002002211A1C00F0F7FA0D4B1A783B1D5A700C4B3C1D1A785B781B021A4300231204120C1B0C1B041343181C0021022257
:4004C000231C00F02DFBBD4603B090BD9004002084040020D01D002080B582B000AF786039607B68CA225200934204D09622FF32934204D007E0054B01221A7003E0034B41
:4005000000221A70C046BD4602B080BD9004002080B582B000AF786039607B68282B1CD004D8012B09D0262B0ED039E0422B27D0712B29D0412B17D032E0002000F074FCB3
:40054000002000F017FA2BE0174B1B78042B03D1164B01221A7023E022E0144B01221A70134B00221A701BE000F05CF8021C114B1A60012000F0FEF9002000F039FA0FE0C1
:400580000D4B00221A700BE03B681B88002B03D1074B02221A7002E0054B03221A70C046BD4602B080BDC046C81D00209104002098040020940400209004002080B500AF62
:4005C000054B1B680A331A1C034B1A60042001F037FDBD4680BDC0469C04002080B500AF0F4B0820191C01F01BFA01F011FC0020012101F04BFC0020012101F073FC402380
:40060000FF330020191C01F0D3FC012001F0A0FC082001F07FFA01F0D1FBBD4680BDC046BD05000080B500AF024B1B68181CBD4680BDC0469C04002080B500AFFEE7C046B1
:4006400080B586B000AF224B7B61224B3B61204B7B6135E03B691B68FB603B695B68BB603B699B683B6000237B600CE0FB681A68BB681A60BB680433BB60FB680433FB6096
:400680007B6804337B607A683B689A42EED13B69DB683B6000237B6008E0BB6800221A60BB680433BB607B6804337B607A683B689A42F2D13B6910333B617B69013B7B61F1
:4006C0007B69002BC6D101F0B7FFFFF70FFEFEE7010000009C29010080B582B000AF154B144A126801218A431A6000237B600FE07B68032B04D8104B7A689200D35800E093
:400700000E4B0F4A796889008B507B6801337B607B682F2BECD9FFF7E9FC0A4B00221A60044B044A126801210A431A60BD4602B080BDC0460000104000000000390600007B
:4007400000000020C000002080B582B000AF786039607A683B68101C00211A1C01F0AAFFBD4602B080BDC04680B586B000AF7860396000233B6100237B612FE07B699B0081
:400780007A68D3181B68BB600F23FB18BA681A70BB68FF229343BB6018E03B695B003A68D3181B781A1CBB68D318191C3B695B003A68D3185B780B703B6901333B610F2398
:4007C000FB181A780F23FB18013A1A700F23FB181B78002BE1D17B6901337B617B69022BCCD9BD4606B080BD80B500AF0E4B802212061A600D4B03221A600D4B0D4A1A6064
:400800000D4B03221A600D4B802212061A600C4B8022D2031A600B4B00221A60012000F013F8BD4680BDC046000030403000304080003040044004003000314000003A4036
:4008400000033A40000E3F4080B584B000AF021CFB1D1A700B4B1B68FB60FB1D1B78002B05D0FB68802212061343FB6003E0FB685B005B08FB60034BFA681A60BD4604B0A9
:4008800080BDC04680033A4080B582B000AF094B1B68DAB2FB1D7F218A431A70054BFA1D12781A60FB1D1B78DB09DBB2181CBD4602B080BD1002044080B500AF00F050F851
:4008C000054B181C00F00EF8032000F017F800F03DF8BD4680BDC046DD08000080B500AFBD4680BD80B582B000AF7860024B7A689A64BD4602B080BD0000002090B585B041
:4009000000AF021CFB1D1A701623FB600B23FC1800F0CBFF031C23700A4B0A4A12680A491140FA1D1078FA689040021C0A431A600B23FB181B78181C00F0BBFFBD4605B01F
:4009400090BDC04600E400E0FFFF3FFF80B500AF024B04221A60BD4680BDC04600E100E080B500AF024B04221A60BD4680BDC04680E100E080B584B000AF021CFB1D1A701C
:400980000E4B1B68DAB20F23FB1840218A431A70FB1D1B789B01DBB240221340D9B20F23FB180F22BA1812780A431A70034B0F22BA1812781A60BD4604B080BD0003044085
:4009C00080B582B000AF021CFB1D1A70064B064A126806491140FA1D127892040A431A60BD4602B080BDC04608030440FFFFE3FF80B584B000AF021CFB1D1A700D4B1B688E
:400A0000DAB20F23FB187F210A401A70FB1D1B78DB01D9B20F23FB180F22BA1812780A431A70044B0F22BA1812781A60BD4604B080BDC0460003044080B582B000AF021CEB
:400A4000FB1D1A70064B064A126806491140FA1D127852050A431A60BD4602B080BDC04608030440FFFF1FFF80B500AFBD4680BD80B582B000AF7860024B7A681A60BD4639
:400A800002B080BDA004002080B586B000AF3A60FB1D021C1A70BB1D0A1C1A701623FB1800221A80FB1D1B78022B04D91623FB1801221A802BE0FB1D1B78012B07D11123D3
:400AC000002B04D11623FB1813221A801FE0FB1D1B78124A5B00D3185A880823FB181A81BB1D1B789AB20823FB189A800823FB183A681A600823FB18181C002101220CF0B9
:400B00006FFF031E03D01623FB1801221A801623FB181B88181CBD4606B080BD2823010090B589B000AF0C243C192080081C111C7B600B23FB18021C1A700A23FB180A1C18
:400B40001A702D4B1B78022B05D01E23FB180422FF321A8048E00B23FB181B78022B04D91E23FB1801221A803EE00F23002B14D00F235A1E2149131C9B009B189B00CB1814
:400B800008339B685B68181C00F0E8F9031C1A1C012313409BB2002B05D11E23FB18802252001A8020E00B23FB181B78144A5B00D3185A881023FB181A811023FB187A68D0
:400BC0001A600A23FB181B789AB21023FB189A801E23FC180C23FB181022BA181868111C0CF070F9031C23801E23FB181B88181CBD4609B090BDC046C81D00201424010015
:400C00002823010090B587B000AF786000237B611323FB1800221A700823FB187A6812881A800823FB1800225A607B689B890F2293421FD10823FB1800229A707B685B68F6
:400C4000181C00F08BF9031C1A1C012313409BB2002B03D0CA235B007B6102E09623FF337B612B4B1B78DBB201229343DAB2284B1A701DE07B689B891322934218D10823AE
:400C8000FB1802229A707B685B681B78012B03D19423FF337B6103E01323FB1880221A701B4B1B78DBB201229343DAB2184B1A707B69002B24D07B681A1D7B6813217C18DD
:400CC000101C00211A1C40230CF0C0FE031C23701323FB181B78002B12D10E4B1B68002B08D00C4B1B6879690822BA18081C111C984705E0084B1B687A684C20111C9847DC
:400D00001323FB181B78181CBD4607B090BDC046D31D0020A00400205013002080B500AF064B00221A70064B00221A70054B00221A7000F009F8BD4680BDC046D31D00201E
:400D4000CC1D0020D21D002080B500AF00F074FBFFF78AFEBD4680BDF0B58DB002AF78602623FB1801221A80214B1B78002B04D1FFF7D4FF1E4B01221A707B68002B30D0EA
:400D80000C23FA181B4B111C1A1C1823081C111C1A1C01F086FC2623FC181749174A184E0C23FD1806230093081C111C321C2B1C01F0B8FC031C2380124B7A681A60262321
:400DC000FB181B88002B0CD10F4B01221A702623FC180E4B181C262115220CF0E9FD031C23802623FB181B88181CBD460BB0F0BDA404002034230100811100005813002047
:400E00006C0A000050130020C81D00201424010080B500AF01F074FC024B00221A70BD4680BDC046C81D002090B585B000AF021CFB1D1A70FB1D1B78022B04D90E23FB1810
:400E400001221A804BE0294B1B78042B42D1284B1B78DBB21A1C042313403BD1FB1D1B78002B0BD1234B1E221A82224B5B6820221A80204B5B6830225A8010E0FB1D1B78F5
:400E8000012B0CD11B4B96221A821A4B5B68C822D2001A80174B5B688022D2015A80164BFA1D12781A700E23FC18124B181C0AF0D1FE031C23800E23FB181B88002B08D1A5
:400EC0000B4B1B78DBB204221343DAB2084B1A7005E004E00E23FB180422FF321A800E23FB181B88181CBD4605B090BDC81D0020D31D002020010020D21D002080B584B0AB
:400F000000AF78600A1CFB1C1A700023BB60BB68002B20D07B689A79BB681A700F23FB1800221A7012E00F23FB181B780133BA68D3180F22BA18127879688A5C1A700F2338
:400F4000FB181A780F23FB1801321A700F23FB181B78052BE7D9BD4604B080BD80B582B000AF78607B681B789AB27B6801331B789BB21B029BB213439BB2181CBD4602B071
:400F800080BDC04690B585B000AF78600F23FB1800221A707B689B890B22934237D17B681A1D7B680F217C18101C00211A1C40230CF04CFD031C23700F23FB181B78002B4A
:400FC0001DD17B685B68181CFFF7C8FF031C1A1C022313409BB2002B08D0104B1B68822251007A68081C111C984708E00B4B1B680622FF32111C7A68081C111C9847084BBE
:401000001B78DBB201229343DAB2054B1A700F23FB181B78181CBD4605B090BD50130020D31D002090B585B000AF78600F23FC187B68181CFFF7A6FF031C23701E4B1B78E6
:40104000DBB21A1C012313400CD00F23FB181B78002B07D10F23FC187B68181CFFF7D2FD031C2370144B1B78DBB21A1C012313401FD10F23FB181B78002B16D00823FB1868
:4010800012229A707B689A890823FB181A800823FB180F22BA181278DA707B680822BA181868111C0BF0F2FE03E07B6818680BF067FFBD4605B090BDD31D002080B582B065
:4010C00000AF7860BD4602B080BDC04680B500AF034B00225A70024B00221A70BD4680BDD01D002080B582B000AF7860BD4602B080BDC04680B500AFBD4680BD80B584B09A
:4011000000AF78600E23FB1800221A707B689B79002B1CD10F23FB1800221A7012E00F23FB181B787A68D35C002B04D00E23FB1801221A700BE00F23FB181A780F23FB1866
:4011400001321A700F23FB181B78052BE7D90E23FB181B78181CBD4604B080BD80B582B000AF021CBB1D1A80BD4602B080BDC04680B582B000AF7860BD4602B080BDC04667
:4011800080B584B000AF021C3960FB1D1A709C4B1B78DBB201221343DAB2994B1A70FB1D1B78712B00D90FE19A00964BD3181B689F460C23FB1807221A700C23FB1800220D
:4011C0005A700C23FB18181C02F0FBFD0C23FB1807221A700C23FB1801225A700C23FB18181C02F0EEFD884B1B68181CFFF786FF031E11D0844B1B68181C01F06FFA824B9A
:401200001B68181C0021FFF779FE7F4B1B68181C0121FFF773FE19E07C4B1A787C4B1A707C4B1A787A4B5A707B4B1A78784B9A70774B181C01F052FA754B181C0021FFF771
:401240005DFE734B181C0121FFF758FE03200AF0C3FB724B04221A70B7E03B68181CFFF741FFB2E03B681A786D4B1A70ADE0644B1B78DBB21A1C202313400ED1694B1B7870
:40128000102B02D1674B0522DA70674B1A78654B101C191C0AF0A8FC97E096E03B68181CFFF766FF91E03B68181CFFF761FF5B4B02221A7089E0594B04221A7085E0574B35
:4012C0001B78022B34D04E4B1B78DBB21A1C012313402DD04A4B1B78DBB21A1C042313400BD04E4B03221A70454B1B78DBB204229343DAB2424B1A701AE0414B1B78DBB24A
:401300001A1C082313400BD0444B04221A703C4B1B78DBB208229343DAB2394B1A7007E03E4B1B78032B03D13C4B04221A704CE04BE03B681B88181CFFF710FF45E03A4AE3
:401340003B68111C1A1C0223081C111C1A1C01F0A8F9354B1B789A00344BD318344A111C1A1C0423081C111C1A1C01F09AF9FFF7C1FE2AE0FFF7AAFE27E03B685B88162BD4
:4013800005D80E23FB183A6852881A8003E00E23FB1817221A803B680E22BA1811881A8800231204120C1B0C1B041343181C0BF079FD0AE03B68181CFFF734FE05E03B6813
:4013C000181CFFF77BFE00E0C0460D4B1B78DBB21A1C112313400FD0094B1B78DBB201229343DAB2064B1A70124B1B68FA1D11783A68081C111C9847BD4604B080BDC04630
:40140000D31D0020802701003C0100207CF1FF0F340100207DF1FF0F7BF1FF0FC81D0020CC1D00202C020020D01D002000240100C41D00205013002080B500AFBD4680BD9B
:4014400080B500AF074B02221A60074B802212061A60064B00221A60054B03221A60BD4680BDC046AC0400200000304004003040080F304080B500AF054A054B1968054B61
:401480001B680B43802109010B431360BD4680BD04003040AC04002080B500AF064B1B78002B04D1FFF7CCFF034B01221A70FFF7E1FFBD4680BDC046A804002080B500AF1B
:4014C000064B1B78002B04D100F00AF8034B01221A7000F0E7F8BD4680BDC046B004002080B584B000AF0F20032100F0BFFA544B0F20191C00F094FA524B01221A60524BC6
:401500001B68002B01DA514900E05149514B514A12680A431A60504B504A1A60504B514A1A60514B00221A60504B514A1A60514B4F4A1A60504B504A1268802149020A43B8
:401540001A604E4B00221A604D4B00221A604D4B01221A604C4B1B687B607B684B4A13407B607B688022920513437B607B68012293437B60444B7A681A600023FB6059E012
:401580000022DC239B0113407B60FB689B00404A944663447A681A6000220123134009D0364B364A1268F96801208840011C89B20A431A6000220223134009D0304B304A1D
:4015C0001268F96801208840011C89B20A431A60002280239B00134003D080235B00BB6002E080235B01BB60002280235B00134005D1284BFA6852000021D15204E0254B65
:40160000FA6852000021D152BB68234A53438022D20094466344002B02DA204A94466344DB129BB219B21E4BFA689200D150FB680133FB60FB68002BA2D0BD4604B080BD3C
:401640007918000020003A4080033A40C0021051C002005100003A4004003A408C000A8018003A400000FF071C003A4010003A400400040014003A4000033A4028023A408F
:4016800038023A4018023A4030003A40FFFFFFDF80003A40D81D002010270000FF070000D41D002080B500AF0A4B1B68002B0EDBC046094B1B68002BFBDB064B054A126837
:4016C000802109060A431A600A2000F065FABD4680BDC04600003A4008023A4080B500AF034B034A1268520052081A60BD4680BD00003A4080B500AF024B01221A60BD460C
:4017000080BDC04624003A4080B500AFBD4680BD80B584B000AF78600023FB607B680322134011D00B4B1B6801221340FB60FB68002B03D17B6802221340F3D1FB68002B42
:4017400002D0044B01221A60FB68181CBD4604B080BDC04610023A4080B584B000AF78607B68002B02D0002000F0E8F97B68002B09D17B689B00084A944663441B681B04F2
:401780001B0CFB6001E00023FB60FB689BB21BB2181CBD4604B080BD80013A4080B500AF1A4B1A4A1268802109060A431A60184B1B68002B24DA174B1A6880235B021340C4
:4017C00003D0154B03221A7002E0134B01221A70FFF79AFFFFF782FF0D4B1A6880235B03134010D00A4B0A4A12680C490A401A60094B1B7804221343DAB2074B1A7002E01D
:40180000054B00221A70BD4680BDC04630003A4000003A4004003A40B4040020FFFFEFFF80B500AF114B114A1268520052081A600F4B1B78002B16D00D4B1B781A1C04237F
:40184000134006D00B4B0B4A1268802149030A431A60FFF727FF064B1B781A1C0223134001D0FFF747FFBD4680BDC04630003A40B404002000003A4080B582B000AF044B04
:401880001B687B60024B7A681A60BD4602B080BD10023A40000000000230800803D00138FDD1C046C046C0467047EFF3108072B6704780F31088704790B585B000AF786032
:4018C0000F23FC18FFF7F1FF031C2370094B7A6807210A40D104074A1268074802400A431A600F23FB181B78181CFFF7E2FFBD4605B090BD00010B40FFFFC7FF90B58BB0F2
:4019000000AF78602723FC18FFF7CFFF031C2370184B1A680C23FB181A60174B1A680C23FB185A607B68033B144AD35C1A1C0C23FB189A60124B1A680C23FB18DA601C2311
:40194000FB18104A1A600C23FA181C23FB185A600D4B1C22BA181A600C4B0D4A1A600A4B1B682723FB181B78181CFFF7A2FFBD460BB090BD08010B4000010B404829010079
:4019800030001040B6EA000008001040040010401700008080B584B000AF78600023FB60154B154A126801210A431A60134B144A1A60144B134A1268802109020A431A6055
:4019C0007B68002B12D01023FB600CE0012000F0E3F800F019F8031E02D00023FB6005E07B68013B7B607B68002BEFD1FB68181CBD4604B080BDC04660F02E4078002E403D
:401A00000220000010002E4080B500AF034B1B6801221340181CBD4680BDC0460C002E4080B584B000AF021C3960FB1D1A7080239B05FB60FB1D1B781F2B02D9002000F0F8
:401A40007DF8FB1D1B7810339B00FA68D3181B68BB60FB1D1B7810339B00FA68D3183A681A60BB68181CBD4604B080BD90B587B000AF021CFB1D1A70BB1D0A1C1A70BB1DF5
:401A80001B78032B02D9002000F058F8FB1D1B781F2B02D9002000F051F8FB1D1B7803221340DB0006337B611323FC18FFF7FDFE031C2370FB1D1B789B08DBB29B00144A2D
:401AC000944663441B68FB607B6903229A40131CDA43FB681340FB60BB1D1A787B699A40131CFA681343FB60FB1D1B789B08DBB29B00074A94466344FA681A601323FB1870
:401B00001B78181CFFF7D5FEBD4607B090BDC04600E400E080B582B000AF021CFB1D1A70054BFA1D12781F210A40012191400A1C1A60BD4602B080BD00E100E080B582B046
:401B400000AF021CFB1D1A7001BEBD4602B080BD80B582B000AF786009E00C4B1B68181CFFF79AFE7B680A4A944663447B607A6880231B029A42F0D8064B1B687A685343AD
:401B8000181CFFF789FEBD4602B080BD3C0200200080FFFF3402002080B582B000AF021CBB1D1A80BB1D1B88044A12785343181CFFF772FEBD4602B080BDC04638020020D5
:401BC00090B583B000AFFC1DFFF76FFE031C2370074B074A126804218A431A6030BFFB1D1B78181CFFF765FEBD4603B090BDC04610ED00E090B583B000AFFC1DFFF755FE71
:401C0000031C2370114B114A1268520052081A600F4B104A128892B21A600F4B0E4A126804210A431A600D4B1B683B600220FFF743FE30BF094B3A681A60FB1D1B78181C6A
:401C4000FFF737FEBD4603B090BDC04600000B400C000B4052F1FF0F10ED00E000010B4090B583B000AFFC1DFFF71FFE031C2370114B114A1268802109060A431A600F4B0D
:401C80000F4A128892B21A600E4B0E4A126804210A431A600C4B0C4A1268FF218A43F1210A431A6030BFFB1D1B78181CFFF701FEBD4603B090BDC04600000B400C000B4001
:401CC00050F1FF0F10ED00E02C000B4080B500AF0E4B0E4A126801218A431A600B4B0B4A126802218A431A60094B094A126830218A4310210A431A60054B054A12680721C2
:401D00008A4301210A431A60BD4680BD00F02E4000FF2E4080B500AF0E4B0E4A126802218A431A600C4B0C4A126807218A4302210A431A60084B084A126830218A432021E5
:401D40000A431A60034B034A126801210A431A60BD4680BD00F02E4000FF2E4080B500AFFFF7B4FF044B044A1268802109060A431A60BD4680BDC04600F02E4080B584B06B
:401D800000AF78600C4B1B6801221340FB607B68002B02D0012B03D005E0FFF797FF06E0FFF7B8FF03E00020FFF7C8FEC046FB68181CBD4604B080BD00F02E4090B583B0E8
:401DC00000AFFC1DFFF771FD031C2370074B074A1268C02109020A431A60FB1D1B78181CFFF767FDBD4603B090BDC04600010B4080B500AF054B1A68C0231B02134001D0CD
:401E0000012300E00023181CBD4680BD00010B4090B583B000AFFC1DFFF747FD031C23700C4B0C4A12680C490A408021C9010A431A60084B074A126807490A408021090233
:401E40000A431A60FB1D1B78181CFFF732FDBD4603B090BD00010B40FF3FFFFF80B582B000AF78607B68022B02D90020FFF766FE054B1B687A68D2000132D3400122134076
:401E8000181CBD4602B080BD10020B4080B584B000AF786039607B68022B02D90020FFF74DFE7B68181CFFF7D9FF031E15D10C4B1B687A68D200111C03228A40D2431340CC
:401EC000FB603B68032213407A68D2009340FA681343FB60024BFA681A60BD4604B080BD0C020B4080B584B000AF786039607B68002B02D07B68012B01D1012300E00023EB
:401F0000002B02D10020FFF719FE7B68181CFFF7A5FF031E16D10D4B1B687A68D2000232111C01228A40D2431340FB607B68DB0002331A1C3B689340FA681343FB60034B1D
:401F4000FA681A60BD4604B080BDC0460C020B4080B582B000AF7860144B144A11687A680A431A607B680122134005D0C0460020FFF774FF031EFAD07A6880235B0013408A
:401F800005D0C0460120FFF769FF031EFAD07A6880235B02134005D0C0460220FFF75EFF031EFAD0BD4602B080BDC04610020B4080B584B000AF786039607B68002B02D0AE
:401FC0007B68012B01D1012300E00023002B02D10020FFF7B3FD174B1B689B0F9B0701D1C92300E05D23181CFFF7D6FD124B1B68FB607B681B011A1C104B9340DA43FB68AB
:402000001340FB600C4B7A681201111C3A688A40111CFA680A431A60064B1B689B0F9B0701D1432300E01F23181CFFF7B5FDBD4604B080BD0C020B4008020B40FFFF0000C1
:4020400090B585B000AF78600B23FC18FFF72DFC031C2370FFF7CCFE031E04D00123FB60FFF7D6FE01E00023FB607B680D4A13407B600D4B0C4A12680C4911407A680A438A
:402080001A60094B1B68FB68012B01D1FFF796FE0B23FB181B78181CFFF70BFCBD4605B090BDC0460404040010020B40FBFBFBFF80B582B000AF78600A1CBB1C1A80BB1C1F
:4020C0001A887B681A60BD4602B080BD80B582B000AF78600A1CBB1C1A80BB1C1A887B681A60BD4602B080BD80B582B000AF304B1B78DBB21B022F4A1278D2B213437B601C
:402100002D4B1B78DBB21B022C4A1278D2B213433B603B682A4A934207D17B68072B04D1284B3B6004237B6009E03A68D4231B019A4204D17B68042B01D1224B3B60224B0F
:402140003A681A60214B7A681A60214B1B78DBB21B02204A1278D2B213437B607A6880239B019A4202D07B68002B01D11A4B7B601A4B7A681A601A4B1B78DBB21B02194A74
:402180001278D2B213437B607B68174A934206D07B68164A934202D07B68052B01D1144B7B60144B7A681A60BD4602B080BDC046D9F0FF0FD8F0FF0FDFF0FF0FDEF0FF0FCF
:4021C000580B0000580D00006C002E4074002E40DBF0FF0FDAF0FF0F0220000078002E40DDF0FF0FDCF0FF0F0F0F000005050000050F000080002E4080B582B000AF021C8F
:40220000BB1D1A80BB1D1B88181CFFF7C5FCBD4602B080BD80B582B000AF78607B68181CFFF796FCBD4602B080BDC04680B500AF00F066F8BD4680BD80B500AF00F06AF8A7
:40224000BD4680BD80B500AF00F064F8044B181C00F024F8032000F02DF8BD4680BDC0462923000080B500AF024B181C00F004F8BD4680BD2923000080B582B000AF7860CA
:4022800000F048F87B68181C00F008F8032000F011F800F035F8BD4602B080BD80B582B000AF7860024B7A681A67BD4602B080BD0000002090B585B000AF021CFB1D1A7023
:4022C0000623FB600B23FC18FFF7EFFA031C23700A4B0A4A1268C0218A43111CFA1D1078FA689040021C0A431A600B23FB181B78181CFFF7DEFABD4605B090BD0CE400E028
:4023000080B500AF024B802252011A60BD4680BD00E100E080B500AF024B802252011A60BD4680BD80E100E080B500AF0FF0BCFFBD4680BD002243088B4274D303098B42A3
:402340005FD3030A8B4244D3030B8B4228D3030C8B420DD3FF22090212BA030C8B4202D31212090265D0030B8B4219D300E0090AC30B8B4201D3CB03C01A5241830B8B42DC
:4023800001D38B03C01A5241430B8B4201D34B03C01A5241030B8B4201D30B03C01A5241C30A8B4201D3CB02C01A5241830A8B4201D38B02C01A5241430A8B4201D34B026F
:4023C000C01A5241030A8B4201D30B02C01A5241CDD2C3098B4201D3CB01C01A524183098B4201D38B01C01A524143098B4201D34B01C01A524103098B4201D30B01C01AA4
:402400005241C3088B4201D3CB00C01A524183088B4201D38B00C01A524143088B4201D34B00C01A5241411A00D20146524110467047FFE701B5002000F0FCF802BDC04624
:402440000029F7D003B5FFF775FF0EBC4243891A1847C04603460B437FD4002243088B4274D303098B425FD3030A8B4244D3030B8B4228D3030C8B420DD3FF22090212BA02
:40248000030C8B4202D31212090265D0030B8B4219D300E0090AC30B8B4201D3CB03C01A5241830B8B4201D38B03C01A5241430B8B4201D34B03C01A5241030B8B4201D320
:4024C0000B03C01A5241C30A8B4201D3CB02C01A5241830A8B4201D38B02C01A5241430A8B4201D34B02C01A5241030A8B4201D30B02C01A5241CDD2C3098B4201D3CB01E9
:40250000C01A524183098B4201D38B01C01A524143098B4201D34B01C01A524103098B4201D30B01C01A5241C3088B4201D3CB00C01A524183088B4201D38B00C01A524174
:4025400043088B4201D34B00C01A5241411A00D201465241104670475DE0CA0F00D04942031000D34042534000229C4603098B422DD3030A8B4212D3FC22890112BA030A1A
:402580008B420CD3890192118B4208D3890192118B4204D389013AD0921100E08909C3098B4201D3CB01C01A524183098B4201D38B01C01A524143098B4201D34B01C01A41
:4025C000524103098B4201D30B01C01A5241C3088B4201D3CB00C01A524183088B4201D38B00C01A5241D9D243088B4201D34B00C01A5241411A00D20146634652415B10F0
:40260000104601D34042002B00D54942704763465B1000D3404201B5002000F00BF802BD0029F8D003B5FFF715FF0EBC4243891A1847C0467047C0460E4B70B500251E1C17
:402640000D4CE41AA410A54204D0AB00F35898470135F8E710F090F9084B00251E1C084CE41AA410A54204D0AB00F35898470135F8E770BD8429010084290100842901008D
:402680008C29010030B50024944208D0035D651C0C5DA34201D0181B02E02C1CF4E7002030BD002310B5934203D0CC5CC4540133F9E710BD031C8218934202D0197001339A
:4026C000FAE7704710B501F0FDFA10BD10B501F00FFB10BD10B500F0BFF810BD10B50749044609780220002907D1204601F023FB002802D1204609F059FA10BD3A030020B3
:4027000010B506F013FC01F0F3FA01F012FB00F0ADF800F0C5F802490020087010BD000040020020FFB51E4F81B00646397800200A9D1C46002902D0082005B0F0BD029907
:40274000002900D10120002E27D0002C25D00028F3D101F0CDFA032D05D9A0894008A081A07B4000A0732B4622460399029800F019F80028E1D17D7001F0C2FA0028DCD1ED
:4027800030467E6006F0B8FB0028D6D106F0D6FB0028D2D101213970CFE70120CDE7000040020020FFB5002481B01D460F460646002806D00398002803D0304638438007EA
:4027C00001D001243CE0032DFBD91F488742F8D3FFF748FDFFF730FD00F0D8FA00282DD100F036FC002829D11849084600F052FE0004000C22D13046154E3060B78000208C
:40280000F0803581AD1DEFB23946039800F092F804000ED1B088F2880837801AF9B280B201F02AF9002801D0012407E0E8B200F039F900F065F907490120087000F0B8FA7A
:40284000204605B0F0BD0000D8080000B1290000B80400204802002010B503480078012801D100F0ABFF10BD4802002010B500F051FC002803D100F09FFA002801D0FF209D
:4028800010BD0548007A801DC0B200F023F9034A0020107010BD0000B80400204802002010B500F053FC00F027FE0449002008608880C88008810249087010BDB804002036
:4028C0004802002070B5084B0446DA889E8800205518B54206D21D68AA182260DA885118D98070BD032070BDB80400200148008970470000B804002030B50C4B04461B7A02
:4029000001209C4210D20A4D2B68002B0CD0A000002902D0C3185B8B0B80002A03D029684018407E1070002030BD0000B80400204C020020F3B582B00C46002089000090FE
:4029400001916846FFF7BEFF164D00992960002826D1002317E09A002968062B8B5406D2114E9619777851184F70718806E0029E9619203EB77A51184F7031892E6892198E
:402980005B1C5180DBB2A342E5D3002808D168460199FFF797FF002802D1044A0099116004B0F0BD4C020020002A0100500200207047000010B5002809D005494A68002A6A
:4029C00005D0011F08788000105801F003F810BD4C02002010B50446FFF788FFC0B2801D0749A04202D24868002808D04968A000085800F061FF002801D00470001D10BDAA
:402A00004C020020F8B516460D460446FFF76EFFC0B2801DA04203D20020C0430090F8BDB2B2E9B2684600F06DFF0099481C03D0024AA000526811500098F8BD4C02002056
:402A4000F1B50027FFF752FF801DC6B20B48002504680FE0607800280AD061880098814203D32078FFF7B6FF0746002F04D1241D6D1CEDB2B542EDD33846F8BD4C02002011
:402A800010B50446FFF732FFC1B200208C4202D2A01DFFF79FFF10BD10B5002801D0FFF789FF10BD70B506460948002504680BE06178002905D062882078121D0023FFF7A5
:402AC000A1FF241D6D1CEDB2B542F1D370BD00004C020020F8B5084F064600243D6808E0287879688000085801F01EF82D1D641CE4B2B442F4D3F8BD4C02002000207047F7
:402B00001CB5002469460C70142001902346054A05480CF06FFF04480068401C00D1FF2420461CBD7D2B0000540200203EB5124A0146FF2000230124126800290DD0012939
:402B400014D0042908D104206946009308814B8110460CF04AFF80B23EBD6846009304814381694610460CF03BFFF4E768460093048143816946EBE75402002070B54589D4
:402B8000046841680089030000F026F806240408081D2124002005F085F91BE0022908D0C8B22A4621460BF0AFF92046FFF774FF10E002202A4621460BF0A6F9294620461A
:402BC00000F018F806E000200CF000FC02E020460CF096FF002070BD30B47446641E2578641CAB4200D21D46635D5B00E31830BC18470000014B0022DB6818475802002067
:402C000070B5448905680089022803D0032809D0FF2070BD2246094C0023A46829460120A04708E0FFF752FD241DA2B200232946022006F044F8002070BD0000580200208D
:402C4000704770470248002141600180418070475802002070B50C46002186B016460391012802D0022859D116E003A9012006F07EF801281BD1039D324621462846FFF733
:402C800010FD0095287801900220694608814E816846FFF7B5FF41E0214D002B686809D0049004A9022006F062F801281DD0022006B070BD002812D0298840182146FFF71F
:402CC000F0FC28880024801980B228806988091D884206D12C801348FFF792FF03E00320E6E788421AD96C6018E004986860E278A378110219430B4A698000231060E356B5
:402D00005360032313815181A1788170E178C1706178417021780170042028800020C7E758020020C40400203EB515460C46022803D004280CD000203EBD0091019002202C
:402D40006946088107484A8100680CF04EFE07E00BF0DAF8044B0022DB6829462046984701203EBD5402002058020020014AD1609060704758020020034801688068081ACE
:402D80000A21484300097047D004002010B5FFF759FA542204490548FFF783FC03490120C870002010BD00001C2A01001006002010B5FFF73BFA10BD0020704770B5134CEF
:402DC0002368002B08D0207B1149C20705D04008400020738868A08070BD88680B4AA18880B29268814203D90A4D691A091802E0814202D2411A5118A160A080A0689842E6
:402E0000EAD300F015F80CF00DFE70BDD0040020C0102E40FFFF000010B508461946FFF7A5FF10BD704710B5FFF77EFF10BD000003480021016041608160C16070470000B8
:402E4000D004002010B502000DD0FFF7F1FF074C0321207B0843207310010A21FFF7F0FA2060002010BDFF2010BD0000D004002000B504480A21806848430209FFF7D8FF04
:402E8000104600BDD00400200248007B8007C00F70470000D004002070B545490868CA0410430860434AD06853051843D0600868002802DA404B01221A70022290430860E6
:402EC0003B480E216C30FFF701F9394801216030FFF7FCF8394C3A4D21462846FFF7F6F8374838496C38FFF7F1F80A20FFF792F933487C380069C30B2D484030026A134278
:402F000054D0012000F072FA21462846FFF7DEF82B4820210830FFF7D9F8294814212030FFF7D4F82648FF21C1312830FFF7CEF82348FF212F313430FFF7C8F82048224978
:402F40004030FFF7C3F81E4820493030FFF7BEF81E491B48491C3830FFF7B8F818481C493C30FFF7B3F816481A495030FFF7AEF8134819497438FFF7A9F8114817492C3054
:402F8000FFF7A4F80E4816490C30FFF79FF80C4814491030FFF79AF809481921C9021430FFF794F8FFF7A0F8002070BDFF2070BD00F02E4000020B40680200205565000056
:402FC0007C002E4092C90000320300002F3F00003102000010520000EC160000FA12000031D000003AE3000070B50646581C80B245086D00002408E0304600F07FF8105509
:40300000000A1119A41C4870A4B2AC42F4D3D80705D0D0182038D15CC47FD454C17770BD30B50A4C002100195B1E07E0541864782502545C2C430480891C89B29942F5DB76
:40304000994201D1515C018030BD000000102E4010B5FF2000F0CAF90F49FF2048700E481021801D41800121417001700A490020C91C4870FFF710FF04000AD100F0DEF861
:4030800007210648FFF714F8044807211830FFF70FF8204610BD000068020020CC112E4030B504465B1C1804450C002308E0204600F024F8241D59005B1CA4B250529BB2F1
:4030C000AB42F4D330BD000070B500210A4D5B1E0AE0541864782602545C344346193480001D891C80B289B29942F2DB994202D1515C4019018070BD00102E40014940182C
:403100000088704700102E40014A80180180704700102E4010B50B490020487000F08EF8002000F089F9002000F076F907210648FEF7BEFF044807211830FEF7B9FF002010
:4031400010BD00006B020020CC112E4010B506480078012803D102210448FEF7B7FF02490020C91E087010BD6B02002070F02E4010B50B46062812D006DC01280CD00328DE
:4031800001D1FFF7C7FF10BD0A28FCD00B28FAD105480078107010BDFFF75AFF10BD1146184600F065F910BD6E020020F8B5204DAC6A0127A0071F4E002816DA30780628D0
:4031C0000ED1286A384328621B480069F903084381B219481030FEF779FF042000F006F9134802212830FEF763FFE00711D0062000F0FCF80F49FF20C91E487070780028CD
:4032000002D1686B38436863094801212830FEF74FFFE0050BD53078042802D1052000F0E5F80348FF2101312830FEF741FFF8BD40F02E406B02002000002E4010B50321D5
:403240002348FEF743FF0120FEF7D6FF20483038406A204C80076178800F890001431C480C38FEF733FF6078002808D0401E022181401820FFF7D4F9C000083800E0B82083
:4032800081B21548FEF722FF1348032109021438FEF71CFF10481149B830FEF717FF452189010F48FEF712FF0D480321001FFEF70DFF0C490C48FEF709FF0B480B49603812
:4032C000FEF704FF084801218838FEF7FFFE10BD70F02E406E020020D8102E4090890000041E2E40FF0F000058122E4020900000044800684007400F022801D000207047D6
:403300000120704700010B4000B5FFF7F1FF002805D009480168C908C900016000BD0748016A490849000162054801690122D2039143016100BD000000010B4040F02E401C
:4033400000002E400849087806280BD148780749002803D1486B400840004863C86A01221043C862704700006B02002040F02E4001480078704700006B0200200248407857
:40338000022800D0012070476802002000B50300FFF722FC080D050D0B070507090D012000BD032000BD042000BD022000BDFF2000BD0000074A9168D26889B2064B92B2DC
:4033C000994204D105498A4201D1012100E000210170704780002E4033D000003FE3000001494870704700006B02002010B50446FEF722FF072C01D9FF2C01D102480470A0
:40340000FEF714FF10BD00006B02002001494870704700006802002010B5064A012805D01921C9021046FEF751FE10BD1D21C902F8E7000090002E4010B50A4A141D01280F
:4034400008D009491046FEF741FE08492046FEF73DFE10BD04491046891CFEF737FE0349491DF3E788002E4031D000003AE300000078074AFF2803D04C2804D9553803E04E
:403480001078087070474F3808701070704700006A02002010B50F4A002313600E4A13600E4B18600E4801600E49012008600E490860000290600E490C4808600D4914304E
:4034C0000860FF381538506000F0BEF800F0CCF9002010BD8C02002074020020A0020020A40200209002002080020020E0050020840200209802002000207047014610B580
:403500000020002910D0094B1A689C685118A14209D25868196080188A0704D08A07920F891A091D196010BD002010BD74020020F8B50024164E671E321F3D4631681368C5
:4035400006E01422624310328A58521C1BD0641C9C42F6D36A1C14D02C461422544322460C3288500C214843FFF7C8FF3168002808510AD031680020103408517068401CCC
:4035800070602846F8BD2546E4E73846F8BD000084020020F3B50026F64381B000281BDB1E490968884217D80299002914D01B4F142204463F1D54432546396810354859AB
:4035C000401C09D0FEF738FE38682F1F4159C359994203DBFEF72AFE3046FEBD214608310091465801590C20704308180C220299FFF757F80948761C001D0068C159B14215
:4036000000D100260549009A091D865008684159491C4151FEF70AFE0020FEBD80020020002803DB07490968884202D90020C043704704491422091D0968504310300858A1
:403640007047000080020020F0B500200D4A451E0346171F50600FE014260146714314680E1DA3510C461668083433511668083435511468401C635039688842ECD30020DF
:40368000F0BD000084020020F3B50026F64381B0002841DB2349096888423DD8029900293AD0204F142204463F1D54432546396810354859401C2FD0FEF7BEFD3868415998
:4036C00000292BD0211D009146580C21005971430F46C1190C220298FEF7E3FF11480021001D0068761C00590C34C0190160416081600C48001D00680159B14200D100262E
:403700000849009A091D865008684159491E4151FEF78CFD0020FEBD3046FEBDFEF786FDFAE7000080020020FEB504460D4600201E49089E0860471E009001900290002CF1
:4037400011D0486885420ED2002A0CD0002E0AD0642E08D808460C3001681C2068430C18207A002801D03846FEBD0120226020721846FFF7DDFE6060401C13D06681A68156
:403780000A4827610C3067610179A94200D205710021684601810A462846029B00F040F82846FEBD00202072DDE700008C02002038B50124009400F039F838BDFEB50027C7
:4037C000164EFF433D4600240EE01C20316860430818017A002906D04068FFF721FF002801D0254603E0641C3079A042EDDA681C12D01C2130684D434419FEF71DFD6946BF
:403800006068FFF741FF0546FEF710FD002DD9D1216868468847D5E7FEBD00009802002038B50024009400F001F838BD1FB500220C49541E0A60002811DB496888420ED810
:4038400008491C220C31096850430818406801A9FFF7A0FE401C02D0002004B010BD2046FBE700008C020020F0B50021114A4D1E174611710C3F0B46BD6016E008461C2405
:4038800060431668041D355114680646235014680836A3551468361DA353044616680A34335318301468491C255078688142E5D30020F0BD9802002038B5002100910028BB
:4038C00011DB0F49097888420DDA0D4D04010C3529680859002807D0201D0818694600F06DF9002801D0002038BDFEF7A5FC28680F34015D491E0155FEF798FC009838BDB7
:40390000A8020020F7B582B0002502986E1E06602E48D21C024017462D4A2C4610460C380178106805E02301C358002B0FD0641CE4B28C42F7D3711C28D03401211D40188B
:403940000191039900F028F900281FD101E02646F1E71F48016820460C300F521C480399026820460E30115419480399026820460F3011540398784300F0A0F814490028B1
:403980000968085102D00024009011E001251AE00F48016801980818009900F02AF9002801D0012502E00098C0190090641CE4B203988442ECD3002D05D1029806600448FA
:4039C0000179491C0171284605B0F0BDFCFF0000B4020020F8B50D4600216A468C461180002839DB23490978884235DA214B04010C3319680A59002A2ED020460C300B5ADC
:403A0000801C0E5C184670438018954224D3854222D2002006E007465F43BF18AF4206D0401CC0B2B042F6D36046002814D0114E271DC8190C366A46294600F004F9002886
:403A40000AD168460088012808D030682946C01900F0CFF8002803D00120F8BD0020F8BDFEF7EAFB30680F34015D491C0155FEF7DDFBF3E7A8020020F8B50F46002400F0A2
:403A800033F8002817D10C4900220B460C334A600EE021011D680E466A501D680C36AA53B61C1D680F31AA551D68641C6A54E4B2BC42EED31A71F8BDA8020020014610B5EF
:403AC000002000290CD0C91C064B8A08596892005C888A18A24202D898685A60401810BD002010BDA8020020F8B5044600200D4E009031700D01748029466846FEF7E2FE15
:403B000000280DD131460C3100980860601B001F81B26846FEF7D6FE0099B160002800D0FF20F8BDA8020020F8B5002827DB19490978884223DA174C05010C3421684859F3
:403B400000281CD028460C30085A009028460E300E5C401C0E5420682F1DC01900F064F800280CD12068002445590EE0094829460C300068C01900F03CF8002801D0012010
:403B8000F8BD00982D18641CE4B2B442EED30020F8BD0000A802002030B50D4604000BD0A800FFF78BFF6060002805D000202570C0436080002030BD012030BD70B50D46E0
:403BC000040005D0002D03D00220205E002801DA012070BDFEF730FB0221615E60688900405828606088401E6080FEF71FFB002070BD70B50D46040007D0002D05D002218E
:403C00002078615E401E814201DB012070BDFEF713FB6088401C00B26080616880000D50FEF704FB002070BD10B5040009D0227800216068FEF73EFD0020C04360800020AA
:403C400010BD012010BDF0B500231D46002802D00224045F0AE00120F0BD46689F00F6598E4201D1012503E05B1CDBB29C42F4DA15700020F0BD0000014800787047000062
:403C8000BC0200207CB505460024FEF71FFDA8796946087000A8062229460130FEF701FD0021684604F05CFB0C2804D0072804D01F2804D004E0022402E0042400E027244B
:403CC00020467CBD10B502280BD0032802D0042809D102E000F0D0F805E000F09FF9FF2801D100F0AFF9FFF743FBFFF74FFB10BD10B500F0D7F9FFF73BFBFFF747FB10BDC9
:403D000010B503240CF096FB002810D10CF03AFB00280CD105F07AF8002808D100F09EFB002804D104F076FD002800D10024204610BDFF20704770B50025044600280ED0B6
:403D4000A07901280BD8FEF7C1FCA0790028204602D002F093FF03E002F048FF00E00125284670BD10B5FFF703FB012801D1FFF705FB10BD38B504460120002C20D06178EE
:403D800001291DD800290BD0FF25E535FEF79EFC2846FFF7B3F9C0B22070072803D00EE0FF25CD35F2E70020694608706846FFF701FB69460878012801D108202070002029
:403DC00038BD70B504460120002C1FD06178012902D92278092A19D8002905D0FF25E5352078092803D004E0FF25CD35F8E707202070FEF76BFC2078082808D00020FFF7FD
:403E00001BFB21782846FFF77FF9002070BD0120FFF712FB0721F5E770B50D46040001D0002000E00548002802D0012102F0D6F82946204602F038FC70BD0000840600203A
:403E400038B5054600200446009022466946284600F09CFF0098002801D00CF0CDFAA878214602F0E0F9A878214602F0CFF9641CE4B2052CE9D338BDF8B5624CFFF778FA5E
:403E8000012846D160480078002842D002F090FB0028FAD003F06EFF0028F6D05B4E7078C00703D000F047FC0128EED0B07E0028E7D170780025002878D0000707D5AC202C
:403EC000FFF71CF9070B00F061F9384321D14F484178684603F026FE4D4F06462079B9784018C1B2B14271D802F062FB002810D0464C203402F089F96846008802F0B5F999
:403F000002F05EFA43490988884203D10120FFF76DFA74E04049012008703C48807B00282BD04034608A002827D0E07E002824D1A1200001FFF7E2F8208A4000B04218D98F
:403F40007878002815D1A12424012046FFF7D6F80221884301462046FFF7D6F8FF24F1342046FFF7CBF80321090201432046FFF7CBF83878002800D03D7002F0B9F90120BD
:403F8000FFF72EFA244C08E0FDF71AFEFFF7F0F906282CD02078002829D0FFF7E9F9062825D020780128EFD021E0FFE702F000FB002824D0142002F058F9174C01202070C7
:403FC00002F096F90020FFF70BFA09E015E0FDF7F7FDFFF7CDF9062809D02078002806D0FFF7C6F9062802D020780128EFD0207801288BD1FFF788F925700020F8BDFF20B4
:40400000F8BD0000500600206802002064060020C2020020D4020020BD02002010B50848FF244078002809D102F0C2FA012805D1FFF78CF80720FFF7D9F90024204610BD29
:404040006406002038B5FFF793F9012801D0002038BD02F0ADFA00280AD0114C6078C00703D000F068FB012802D0A07E002801D0FF2038BD617800290FD0684603F052FD84
:40408000022806D96846008802F0EFF8012002F035F90320FFF7AAF9D9E70020F7E700006406002038B5FFF763F9042819D0052817D006281AD0032842D007280AD10020BC
:4040C0006946087002460120FFF752F8FFF750F90128FBD138BDFDF773FDFFF749F90128F8D0FFF745F90128F5D138BD02F024F905E0FDF765FDFFF73BF9012803D0FFF7BC
:4041000037F90128F5D1A12424012046FEF7F6FF01220E4983079B0F0A70022BE5D149880029E2D0104301462046FEF7EDFF2046FEF7E4FF410849002046FEF7E5FF38BD8A
:4041400002F0FEF80120FFF751F938BDC2020020F8B50646002402F0A3FE0546304602F0B7FE00210346012632468A40174610462F401840002F03D0002801D1224394B211
:40418000491CC9B20529EFD32046F8BD70B500252C460A4E03E0002C01D0002000E030460079002803D02046FFF7D2FF0543641C2406240EEFD0284670BD000084060020E1
:4041C0001CB50020694648706846FFF7D3FD01AA69460A20FEF7CCFF6946042008561CBD10B50C4601F076F9002809D00179002906D0C1788078224602F004FB002010BD3D
:40420000022010BD0148007870470000500600204030C07E002800D00120704700B500F001F800BD88214843064940186030417F491CC9B24177052901D300214177C8B2B0
:40424000704700006406002013B501F043F904000BD001F096FC002807D0214601AA0A310620FEF785FF00201CBD02201CBD000010B50C4601F02EF900280AD001F081FC28
:40428000002806D0224604490A20FEF771FF002010BD022010BD000039060020F3B581B0074601460026029802F0F2FD0446002F01D0002500E0154D002D21D0284601F045
:4042C0003FF9032C04D13946029802F00BFE06463846029901F09AFF032C06D0002C10D00121384601F01AFA03E03146384602F0ADFF284601F058FE0221284601F06EFEB0
:40430000FEBD3846029901F081FFFEBD8406002070B50446002503F09BFB002801D00C2070BD2078611C02F067FBFF2802D01F25284670BD02F0B4FBFF2804D02178621C70
:4043400001F0D6FEF4E70725F2E710B503F080FB002801D00C2010BD02F026FB002010BD70B50D46044610210BF086FF1021601806460BF081FF334610221946204603F02D
:4043800093FB102130460BF077FF02202870204604F098F970BD70B504464078217802028006850FE0781143A67809050002090D0643084601F08EF8002812D0022D10D090
:4043C000032D0ED0002E08D00179092909D0002907D0214600F0A1F870BD0089002104F0A6F820460CF008F870BD0020704770B50446002503F02CFB002801D00C2070BD65
:404400002078611C02F0F8FAFF2802D002F03AFA00E01F25284670BD10B504F0FBF900F0F6F8002010BD10B5044600786178E2780843A17811430843217908436179084366
:4044400005D003F0F7FA002803D00C2010BD122010BD204602F012FC002010BD10B5044803F018FC02F018FA00F004F8002010BD20060020F8B5114D00266E706E736E7133
:404480006E76AE76EE766E75AE70EE70AE712F46EE730120B03778723F2078719B20B87100F00AFA0024204601F032FB641C2406240EF8D03E72FE71AE73F8BD640600205F
:4044C00070B505460E46084602F0EAFC0446304602F0FEFC0121A9400A46224001400A4301D0012070BD002070BD10B50446084602F0EEFC0121A140014201D0012010BD31
:40450000002010BD10B5FEF733FF032804D101F017FF0120FEF76AFF10BD70B5044600790D4609281CD000281AD020464030817E491C8176204601F037FDA078FFF76EFEAF
:40454000064602462946204600F00CF8002806D1A0783146FFF760FC28460BF04DFF70BD0846FAE7F7B5054648780C468006870FC8788978000282B00143684681802846F2
:4045800001F00AFB060007D021462846049A00F091FB304605B0F0BD384600F039FC0746034601AA2946204600F0CAFA68468088231DC0B20090A878FF22049902F02EF806
:4045C000684680883B46C2B2A878049902F0D2FBDFE770B5002500242846FFF7B9FD060010D03046E040C007C00F07D02146284601F0FFFD21462846FFF750FE641CE4B26C
:40460000052CEED36D1C2D062D0EE4D070BD10B502F042F9FFF72EFF0BF056FF002010BDF8B5002400F081F80123012800D10124104F00203E4620360425082203E000282A
:4046400001D0002100E031460979002907D001290BD002290BD0114681402143CCB2401C0006000EEBD07C70F8BD1C43F7E72C43F5E700006406002010B5FFF7D1FF10BD34
:4046800010B50B4681791943817103D08078114602F034FB10BD10B582798A43827102D1807802F043FB10BD70B5FF25D53502242846FEF723FD0C4A9178002901D00229C4
:4046C00006D1137852789A18282A01D9032402E0032900D101244105490DE00201432846FEF712FD70BD0000BE02002010B500F022F8002807D0012805D0032801D0042850
:4047000001D0002010BD012010BD014610B50020C90701D000F009F810BD014610B50020C90701D000F001F810BD10B52020FEF7E5FC000A10BD10B51820FEF7DFFC4105FA
:4047400001D5042010BD4007800F10BD38B5044640060CD5684601F003FE0220FFF78CFF072002F0B5F96846007801F03FF9200613D5FFF7E0FF01280FD1684601F0F0FDA0
:404780006846007800F09AFA072002F0A1F9012001F072FC0220FFF76FFF38BD10B5034A0178117002F0A3F9002010BDBE02002010B50446FFF7B9FF002801D00C2010BD8B
:4047C000A27B01211848002A827801D00A4301E05208520082706279012A0FD0C17849084900C170207901280CD06188208802F09BFF2080207904280BD00DE0C2780A4301
:40480000C270EFE7E01D02F021FA0848808C208002E0E01D02F01AFA054920798870204602F074F9002010BD6406002010060020BE02002038B50478FFF777FF844201D1E7
:404840000C2038BD002C18D0072069460870FFF74DFF012807D10121684600F08DF8012801D0092038BD6846007802F031F9FFF71BFF02F078F9012010E0FFF737FF0128FA
:4048800006D1684601F06CFD6846007800F04AFA072002F01DF902F05DF90220FFF7ECFE002038BD10B5034A0178517002F0FEF9002010BDBE02002038B568460BF032FD6A
:4048C000002801D01F2038BD01210098C90201804180002505714571857107214173857302F014F9009C202200212046FDF7E2FE25702A460021601CFDF7DCFE204602F0A9
:40490000F6F8204602F0D2F900980BF075FD042200210248FDF7CEFE002038BDBE0200200346084800B5834209D8184600F0D2FD002804D00089984201D1012000BD0020DB
:4049400000BD0000FF0E0000074A9179491C8906890E917138220A4092014907090E1143084302490840704764060020FF0E0000C006C00E70470000F8B507460E460024AA
:404980000D4803E0002C01D0002500E005462979002905D0641C2406240EF3D00020F8BD204601F0B5F82E712046FFF7CDFF28813C700120F8BD00008406002010B503F006
:4049C000A7F80222002100F003F801F00DFF10BD10B5094B40074907000F090F185A595A40185043C0086421FDF72AFD002800D1012080B210BD0000702A0100F7B53D2012
:404A0000405C88B016460C46002829D030786946087200252046FFF7FBFB012800D00125204603A938300191009023460327A17E34332A46206A03F047F902A808990090AF
:404A40000B46019120463A4603A9243003F00EF802466846007A3070204601F045F810460BB0F0BDFFB587B00C4605461078694608723D20005D1746002826D00026204618
:404A8000FFF7C6FB012800D00126204603A93830019100902346A17E34333246206A03F013F902A80090291D019120462B1D03A924300A9A02F0DAFF02006846007A388082
:404AC00002D1204601F010F810460BB0F0BDF7B53C20405C88B015460C4600280CD0287869460872002806D000262046FFF790FB012803D003E01F200BB0F0BD0126204652
:404B000003A938300191009023460327E17E34333246E06903F0D8F802A8089900900B46019120463A4603A9243002F0D1FF02466846007A2870204600F0E0FF1046DBE7A7
:404B4000FFB505463C20405C87B016460C46002810D0084601F020F801280BD0308869460883002809D000272046FFF751FB012805D005E000200BB0F0BD0220FBE701279D
:404B8000204602A93830019100902346E17E34333A46E06903F098F806A80090291D019120462B1D02A924300A9A02F091FF02466846008B30806846008BA870000AE87012
:404BC000204600F09BFF1046D5E770B50D460446FFF71EFB01280AD0E87AA97A00020143A07801F0BFFC012808D0002070BD00222421204602F0E2FC242070BD28214C203F
:404C00000155204600F09AFB282070BD002801D0002000E003484030C07F012800D0002070470000840600200146002049070ED50021084B03E0002901D0002200E01A4604
:404C40001279022A04D0491C0906090EF3D0704701207047840600200146002049070ED50021084B03E0002901D0002200E01A461279022A04D0491C0906090EF3D0704745
:404C8000012070478406002010B5044680346068002803D00BF0C4FB0020606010BD4030417070474030817070474030017070470171704792001018C166704770B53C25B6
:404CC00001F0F4F8040004D020460021433001F0E9FB2946204600F0C0FB002C02D0A07801F076F870BD000010B5002801D0002000E00348002802D0008903F05FFC10BD67
:404D00008406002010B5002801D0002000E00448002804D00179072901D100F041F810BD8406002010B501F0C1F8002802D0807801F04EF810BD00207047000070B50546FB
:404D4000008A00281ED010491122897A1140C90618D5294640314A8A098A521C4A4392B2D10800D10121540801E0621A94B2A042FBD9FEF781FF012804D1298AA878224642
:404D800001F0E0FC70BD00001006002000230B60052A04D292001018C26E0A60C366704738B5044600200090A079002814D14020015D052901D00E290ED168460BF0C2FAB7
:404DC000002809D12046009902F0E0FB03481021C28A2046FFF754FC38BD00001006002010B50B4604460146184602F0AFF8002802D020460BF00AFB10BD13B5044601AABE
:404E000011460620FEF7B4F96846818861811CBD002800D10220704770470000F8B504462346401D543300909A1EA078911E01F0A6FA25464035A88A298A8000FDF700FB40
:404E4000401E81B2688A884203D96982A07801F0E0FF20460021433001F024FB8020FEF74DF9E88102F054FEE989891C8AB26179FFF7AEFD01F0B8FC02F04AFE2A8A617969
:404E8000FFF7A6FD074601F0A1FC688A00280BD0FF26F1363046FEF731F90321090201433046FEF731F902E0002001F0A0FFFF206130FEF723F96E8A002E0BD07043104940
:404EC000FDF7AEFB0004000C01D0401C80B20D49488002E00B4800214180288A704381B2A07801F0F1FE2837B9B2204602F020FCE98AA07801F040FEA07801F0AAF9F8BD88
:404F000071020000C20200207FB504468034616805460E46183108226846FDF7C2FB31462031082202A8FDF7BCFB102168460BF0A3F96068102108300BF09EF960682B46F5
:404F4000083024331022694602F0AEFD7FBD10B504460821FFF79FFB10212046FFF79BFB207905281FD006281DD008281AD12189002003F09BFA072020712046FFF748F96B
:404F8000014620464030012913D00E21017000210176204600F028FF2046FFF775FE2046FFF7CCFE10BD20890122002103F062FAE1E70521EAE70000FFB581B01F460446C1
:404FC0000821FFF768FB10212046FFF764FB2079082803D0092804D0042203E00422012501E009220025204600F0C2FD264600204036307022712046FFF746FE0398002D6A
:4050000002D0012808D00BE001280AD120890022029903F02FFA04E02189029803F046FA012700203076012F04D0204600F0DCFE05B0F0BD02983073204602F0EBFA054688
:4050400005480121C28A2046FFF71AFB002DEFD109202071ECE700001006002070B50C460546FFF7D5F8012809D108212846FFF712FB0023012221462846FFF79DFF70BD58
:4050800010B5044600F074FD2046FFF7FDFD00214034217010BD70B505461A24FFF7B8F8012809D108212846FFF7F5FA0023012221462846FFF780FF70BD0000F8B50446B0
:4050C000002000900E4668460BF03CF9002801D00D20F8BD8420005908212030009D00F0F4F920460421383000F0EFF9002E02D1204600F07BFD2946204602F0D7F90E487C
:405100000821C28A2046FFF7BBFA204600F0D3FE25464035002808D0204600F023F8002801D0092028700020F8BD08202870204600F03AFFF7E7000010060020014610B573
:4051400040310A460978082906D0092907D00A2901D100F091F810BD0B20107010BD00F001F810BD70B50446007925464035052805D0062803D008280FD00C2070BD03220C
:405180000621204602F01AFA0D480821C28A2046FFF776FA1120287010E006202873204602F038FA0646AA8A0A20424301212046FFF766FA002E01D109202071002070BDAE
:4051C0001006002038B504460020009068460BF0B9F8002801D00D2038BD2046009D00F08BF908202071204600F000FD2946204602F08EF900213D2001550F20402108558B
:40520000204600F0D1FE002038BD00B5024600F0AFFC10214032117000BD10B50446FEF7F7FF012809D04020005D112805D100231A4606212046FFF7BFFE10BD10B5FFF7A8
:4052400086FE10BD38B504460021684600910BF079F800280CD12046009902F0D0F905480821C28A2046FFF70BFA0D204034207038BD00001006002038B504460021684696
:4052800000910BF05FF8002801D00D2038BD2046009902F0A9F905480821C28A2046FFF7EFF90C2040342070002038BD1006002000787047F8B50025002801D0002400E0DE
:4052C0001A4C002C28D0204600F05BFC002823D0207903281CD005281CD026464036B18AA07801F0FFFCB078012815D10021204601F049FE274680373868002802D00BF0C3
:405300008FF83D600020B0702079072805D007E0042000E006202071F8BD2046FFF70EFD0221204600F05AFEF8BD00008406002010B54C22115400F046F810BD10B50446DC
:40534000FF21FFF7A8F909202071A07801F0FAFC10BD000038B5FF216A461180002801D0002400E0064C002C08D011460620FDF7FFFE684601882046FFF73FFD38BD00001D
:405380008406002010B504468079002809D022214C200155FF212046FFF77DF9204600F012F810BD10B5037902464032002B03D01173092B02D003E0002100E022211173E8
:4053C00000F001F810BDFEB504460089002701902781207926464036002817D0012815D002280AD112E002AA6946204601F09CFD002807D100980BF009F8204601F0BCFD93
:405400000028F0D02046FEF71BFDB776254680352868002802D00BF003F82F606868002802D00AF0FDFF6F60317B002902D0019800F044F8A078002100F024FF2046FFF712
:40544000BDFAA07801F078F8A07800F0C1FC0B20FFF712F900F000FCFEBD70B50E46054602F052FB044606702846FEF7D1FE014601204140204661700C3000F0FCFF002DFB
:4054800010D02889608028464030C1782171002E10D169796171018AE180418A2181808A608107E01820FDF729FEC005C00F207100206080204602F0A2FF70BD0A4610B531
:4054C0000146002003F092F810BD10B50AF0B0FC10BD000000B50146FFF74AFA002801D0002000E00348002802D002898A4200D0002000BD8406002038B5044680346068EE
:40550000002806D168460AF02DFF002801D100986060606838BD000010B5014600F03CFB0128887802D0FEF77DFE10BD88214843024940186030007F10BD000064060020E1
:4055400070B5054604464035A87F012811D1A1788820084A484380186030067F3046FEF7AFFF002805D10220A877A078314601F0A9F870BD6406002010B50E4CE0790028AF
:4055800016D0FFF726F80C48827FC17F808B00F06BFB01280CD10020E07100F0EAFE0446AC20FDF7ABFD010B02D0204600F00EFA10BD0000140700206406002070477047BE
:4055C000490510B5490F0B00FDF706FB060704080C0C0F073E21FFF7ABFE10BD0821FFF7E1FE10BDFFF7EFFE10BDFFF7CBFE10BDF8B507460025002D01D0002600E0204E96
:4056000000F06CFE3046403044890021418100F08BFE304600F0B5FA01282BD1A00702D52846FFF747FEE00602D52846FFF792FEA00601D5FEF7CDFF600601D500F0C8FAC4
:40564000200602D5284600F01DF8600702D5284600F0FAF9380402D52846FFF753FB780402D52846FFF740FBE00703D021463046FFF7A6FF6D1C2D062D0EBCD0F8BD00000A
:4056800084060020F8B5002801D0002400E0204C002C39D025464035A878012834D1E98AA07801F069FA2046FEF7B2FD01282BD002F02EFA2A8A6179FFF78AF9064601F05C
:4056C00085F82836B1B2204602F032F8E98AA07801F052FAFF206130FDF710FD6E8A0D4F0146002E11D0304648430B49FCF798FF0004000C01D0401C80B27880288A70431C
:4057000081B2A07801F0E0FAF8BD0020F5E7000084060020C20200207102000070B50D46124A010001D0002401E014462034002C1BD0204600F030FA01280AD1882048437A
:4057400080186030007FFEF7BBFE002801D101F0EBFE20464030817E491B8176204600F023FC2089294602F0E2FE70BD6406002070B503460088FFF7ADFE040013D000F04C
:4057800000FA00280FD02079092819D02546997840352973204601F03DFF0646A878012803D0AA8A02E0022070BDEA880A20424301212046FEF764FF002E01D1092020718D
:4057C000002070BD0EB5002217216B460292198100905A810120029B00990AF093FE0EBDF8B5184E0024F079002820D10025AC20FDF784FC000B21E0204600F06FFEFDF767
:405800007DFC07462A46214600F02EFA01280FD00D48012187838577C477F171002D01D0002000E02030002801D000F0BDFBF8BDAC20FDF763FC000B641CE4B20028DBD1D9
:40584000F8BD0000140700206406002010B50088FFF740FE002809D0014640310C460978082905D00B2903D00C2010BD022010BDFFF778FC002801D009202070002010BDA3
:4058800070B503460088FFF725FE040008D0254640352878082805D00B2803D00C2070BD022070BD8420005910220830991CFCF7F8FE2046FFF728FB2878082804D020463C
:4058C000FFF7DAFC002801D00A202870204600F06BFB002070BD000010B50C46002121700088FFF7F7FD03000BD000F04AF9002807D009481121807A0840C00603D411203A
:4059000010BD022010BD022020701A8A1889002102F088FE002010BD10060020F8B50F46002100910088FFF7D5FD040012D000F028F900280ED0E079410641D4617E02263B
:405940004A07002A08DB8907402500291ADA2843E07135E00220F8BD02F0D6F80021017021894180A1898180217E4170E189C1803E7005460178134802F0BAFB284602F058
:40598000F5FD1DE0204600F00DF9012806D068460AF0D8FC002803D00720F8BD2A20F8BDE07900992843E071204601F05DFE607E0421304360760448C28A2046FEF760FE4E
:4059C0000020F8BD1D040000100600203EB500220F236C460292238100910190628169460EC900200AF08EFD3EBD000070B5054600F05CFA040021D003202071254600262F
:405A00004035EE76E6702046FFF708FA01F0A2F80920FEF731FEA07800F07CFD0121204600F0DCFA2E706E70AE7000212046FFF714FD0449887B401C887370BD284601F0D7
:405A400081F970BD6406002010B5002801D0002400E00A4C002C0FD020464030417802290AD1002141702046FEF7D2FB002803D10221204600F0B2FA10BD000084060020AB
:405A800070B503460D460088FFF724FD04000BD000F077F8002807D012481121807A0840C00603D4112070BD022070BD20464030418A008A491C41430804C10C588888429A
:405AC00001D2122070BD20822079072802D12046FFF734F9022028702089002102F0CAFD002070BD10060020016A491C016204D1817E491C4906490E81767047C169491C9F
:405B0000C16104D1C17E491C4906490EC176704770B500250646002801D0002400E0114C002C1CD0882200212046FCF7C3FDA67000202646207140363070204600F018F89B
:405B4000204601F015FA084820820848B577807A1121084000D001202075012070BD002070BD000084060020B80B000010060020002101628176C161C176203001774177C5
:405B800070470079002805D0012803D0022801D001207047002070474030807F002800D00120704740300078002807D0012805D0052803D00E2801D0012070470020704738
:405BC00010B5807801F084F9002800D0012010BD10B500F0CEFB0446AC20FDF78FFA010B02D02046FFF7F2FE10BD000070B5054604464035A87F002823D1FF206075A0780E
:405C00008821144A484380186030417F8823491CC9B24177A078584380186030052901D300214177A0788821484380186030467F0677A1783046FEF743FC002802D001205D
:405C4000A87770BD0220A877A078314600F03AFD70BD0000640600200020401C0006000EFBD0002070470000F0B515468207920F85B0C004C00E02926A469080002D01D0B5
:405C8000002400E0514C002C29D0084600F026FC03906846808800280BD00298012845D0022843D003280CD03D20005D012872D086E00398FDF722FA01462046FFF79DF8E8
:405CC0007EE00020029002A80AF01CFB002807D03D20005D012876D12046FFF705FF72E06846029E8388324600210398FDF77CF90398FDF703FA01462046FFF77EF82846F5
:405D000000F0B9FA01AA21463046FEF777FE002806D030460AF066FB3D204C21085528E0F5773146204601F071FA4CE000200090278968460AF0D6FA002802D0002005B058
:405D4000F0BD6846009E8388321D00210398FDF74BF90398FDF7D2F901462046FFF74DF8284600F088FA25464035287E00280CD103E02046FFF7E2FA25E001AA2146304687
:405D8000029BFEF76FFE002806D030460AF020FB3D202873EDE710E00298FFF73DF8390A000101433770717068468088B070000AF0703046FFF706FD05E02046FFF794FE48
:405DC000284600F058FA0120B9E700008406002010B5044A917B002901D0491E9173FFF797FE10BD64060020F8B5074606464037B87F00283DD0B0788821009048431F49A5
:405E000045186035287F0099FEF76FFB012831D0287F401CC4B2052C00D300240020B877FF276F772F77A87702460146009800F0C9FD717DFF2903D0304601F05AF877757B
:405E400001F072FB00252F462246694630460097FEF79CFF0099002902D03046FEF75DFB641CE4B2052C00D300246D1CEDB2052DEAD3F8BD0320B877F8BD00006406002084
:405E800010B502460021084B03E0002901D0002000E018460479944204D0491C0906090EF3D0002010BD00008406002000B50120FFF7E6FF00BD10B5044601F025FE2189DF
:405EC000018080346168416061682831816002F007FB10BDF7B50646087982B00C46092807D0A078F0770846FFF756FE012806D010E030460AF08AFA022005B0F0BDA178A3
:405F00008820284A484380186030007FFEF7D8FA012810D0A078FEF779FE01280BD037780121304601F0ADFA25462035062F36D00B2F0FD107E06846027C21463046FEF7E4
:405F40004FFF0D20D9E72046FEF762F9012801D1002028772046FFF7DFFA054604AA21463046FEF7B4FD01205F2108556946087C0090A07833463A46294600F04FFB69469B
:405F80000A7CA0780323294600F0F4FEA0782946FDF742FF30460AF039FA0020ADE70120D7E700006406002010B502464032937F0021002B03D1927E002A00D00121064A23
:405FC000D279002A00D000210279092A00D10121807800F0F9FE10BD1407002070B50C460646FEF715F9002814D1012C0ED935464035A87800280DD1687802280AD0307929
:40600000092807D03046FFF7DBFD0446204600F008FE70BD0124F9E770B50D4601280BD0082808D1A8241146B020FDF76DF829462046FDF769F870BD2020FAE710B50146E7
:406040000820FDF761F810BD10B50446FF20F130012C01D1FF20D530002200F000FF1020FDF74CF80349A043088001461020FDF74BF810BDC602002010B504461020FDF7A6
:406080003DF80449A043088001461020FDF73CF810BD0000C602002010B50446012802D0082C07D102E0FF20D53001E0FF20F13000F0CAFE1020FDF721F804492043088035
:4060C00001461020FDF720F810BD0000C602002010B504461020FDF711F804492043088001461020FDF710F810BD0000C6020020F8B507460120B84085B214460E460122B1
:4061000029467C2000F0ABFE32462946782000F0A6FE6078217800020143E078A5780002054360792679000206430C2047430D2080013C182046FCF7E7FF241D2946204662
:40614000FCF7E2FF201D3146FCF7DEFFF8BD401880B270478B00034310B5D10191201943C000FCF7D1FF10BD70B505460C46407829780002014341200001FCF7C5FFE87832
:40618000A978000201430A48FCF7BEFF60782178000201438320C000FCF7B6FFE078A1780002014302480830FCF7AEFF70BD00001404000070B50D46044681B201208002FE
:4061C000FCF7A2FF210C0448FCF79EFF81202946C000FCF799FF70BD0404000070B5054600242846FCF78AFF641CA4B2102CF8D370BD10B50C460146B020FCF785FFFF2026
:4062000021462D30FCF780FF10BD704710B50C460146B020FCF778FF204600F04BFE0021FCF772FF10BD70B50C46054600F005F821462846FFF7DDFF70BD10B50C4601463A
:40624000B020FCF761FFFF2021462930FCF75CFF10BD10B50146B020FCF756FFFF20002220211D3000F0FBFD10BD10B50146C020FCF74AFF10BD010210B54D310020FCF70B
:4062800043FF10BD10B504020029014608D0B020FCF73AFF214675310020FCF735FF10BDB020FCF731FF512000214001FCF72CFF00210348FCF728FF21467631ECE7000054
:4062C000240A000010B554210020FCF71DFF10BD10B553210020FCF717FF10BD10B5034908884880FFF7C8FE10BD0000C602002010B550210020FCF707FF10BD10B50E241E
:4063000000280CD0C420FCF7F9FE20430146C420FCF7FAFE51210020FCF7F6FE10BDC420FCF7ECFEA043F1E710B502484088FFF7CFFE10BDC602002010B5FDF703F810BD80
:4063400010B552210020FCF7DFFE10BD884201D8081A03E00022D243101A401880B2704710B504461820FCF7C9FE8004400F207010BD10B5B020FCF7C1FEC0B210BDF8B57A
:406380000E4601461C461546B020FCF7BDFEFF20E930FCF7B3FE0746FF200130FCF7AEFE3080FF200930FCF7A9FE2880FF200530FCF7A4FE208079070698490F0170F8BD80
:4063C00010B5C820FCF79AFE10BD10B50C46002812D05820FCF792FE2070000A60705C20FCF78CFEA070000AE0706020FCF786FE2071000A607110BDFF20C130FCF77EFE00
:406400002070000A6070FF20C530FCF777FEA070000AE070FF20C930E8E7000000B5024A00F004F800BD0000FF7F000000B51346FFF78CFF984201D8022800D2002000BDE2
:4064400010B50146B020FCF75FFE0248FCF756FE10BD0000080A000010B52420FCF74EFE10BD10B50146B020FCF74EFEFF202130FCF744FE10BD70B504466820FCF73EFEB8
:4064800006466C20FCF73AFE05467020FCF736FE2670310A6170A570290AE1702071000A607170BD10B50446012905D01820FCF725FEC00B207010BD4820FCF71FFE800780
:4064C000C00FF7E710B50146B020FCF71DFE0248FCF714FE10BD0000280A00000120C0027047000010B50146B020FCF70DFE0248FCF704FE10BD00000C0A000010B50C460A
:406500000146B020FCF700FE0321A0014902401810BD00008821074B414310B5C918FF2260314A770A7700228A77114600F04AFA10BD00006406002088225043074A10B5AD
:406540008018FF21603041770177002181770448418EFF201D3000F077FC10BD640600201006002010B50C460146B020FCF7CCFDFF202530FCF7C2FD0222214600F002F88E
:4065800010BD000010B50023884201D8081A03E00024E443201A4018044980B2884201D8824200D90123184610BD0000FF7F000010B5C420FCF7A2FD0006C00F10BD000038
:4065C00010B50348FCF79AFDC007C00F10BD00002C0A0000F8B503465078167800020643D07895780002054350791779000288240743002900D098241946B020FCF784FD89
:4066000031462046FCF780FD201D2946FCF77CFD204608303946FCF777FDF8BDFFB581B014460D4606460A9FFFF768FF3B460021049AFCF749FD02484019845505B0F0BD81
:40664000CA02002070B506460D4611242520A40108214001FCF758FD2B46324600212046FCF732FD70BD70B5212405466401FFF72FFE10232A4600212046FCF725FD70BD31
:4066800010B5044640782178000201438F20C000FCF73AFDE078A178000201430148FCF733FD10BD7C04000010B50C460146B020FCF72AFD802021460143FF202930FCF72D
:4066C00023FD10BD70B50D460146B020FCF71CFDFF241D342046FCF711FD01090901FF202943013001432046FCF70EFD70BDF8B500242646012807D0032802D0052808D152
:4067000005E002240A2604E004240C2601E004240D26492701463F013846FCF7F5FC25204001FCF7EBFCC5B228462042F7D0252031464001FCF7E8FC00213846FCF7E4FC97
:406740002846F8BD70B50D46044601461646B020FCF7DAFC512029464001FCF7D5FC31460648FCF7D1FC032189030820FFF794FC210275310020FCF7C7FC70BD240A000036
:4067800070B50D4604460146B020FCF7BDFCFF2029461930FCF7B8FC21024B310020FCF7B3FC70BD70B5491E8CB205460146B020FCF7AAFCFF2021461930FCF7A5FC2902F5
:4067C0004C310020FCF7A0FC70BD0000054910B5884200D908460146FF206130FCF794FC10BD0000FF0F0000054910B5884200D908460146FF206530FCF786FC10BD0000A6
:40680000FF0F000070B588251446002900D098250146B020FCF778FC2846FCF76FFC2070000A6070281DFCF769FCA070000AE07028460830FCF762FC2071000A607170BD1D
:4068400010B51446024611200B4680010021FCF727FC012C01D1FFF735FD10BD10B504460920C001FCF74AFC2070000A60700448FCF744FCA070000AE070FFF723FD10BD1B
:40688000840400000121814010B589B200227C2000F0E5FA10BD000070B5FF210120FFF7D3FBFF210820FFF7CFFB3020FFF7E4FB80210020FCF728FC002211460320FCF755
:4068C00057FC374DFF20A98DD530FCF71DFC0024FF26F1362146B020FCF716FC298F3046FCF712FC2046FFF727FE641C2406240EF0D0FF20A98FF930FCF706FC284810303E
:40690000044600F073F9204600F0B8F900F04CF8234CB82040346188FCF7F6FBA188BC20FCF7F2FBE188C420FCF7EEFBFF20698EE130FCF7E9FBA12000210001FCF7E4FB2D
:406940003920FFF7C5FBFFF7C3FC93200721C000FCF7DAFBFFF7B6FCE020FFF73FFCE820FFF73CFCF020FFF739FC0020FEF726F8618A0C48FCF7C8FB0A482821001DFCF7D3
:40698000C3FBFF210131AC20FCF7BEFB832000218000FCF7B9FB5B210020FCF7B5FB70BD10060020140A000010B500217C20FCF7ABFB00217820FCF7A7FB74210020FCF793
:4069C000A3FB10BD70B50D4601461446B020FCF79BFBFF261D363046FCF790FB01090901FF20294301308143002C01D1102041403046FCF789FB70BDF3B589B0FF20019060
:406A00000D208001009048780D7800020543C8788E780002064348790979000201437C200791FCF76BFB06907820FCF767FB059074210020FCF768FB18480024049026E0A1
:406A40000120A04087B20098FCF758FB03900098FCF754FB02900098FCF750FB039A29465140029A72401143079A424011430BD10698074208D00598E040C1070998C90FDA
:406A8000814201D1019405E0641C0498E4B20078A042D5D801980BB0F0BD00005006002070B5FF257C20FCF729FB0849002401230A7805E01946A140014205D0641CE4B22D
:406AC000A242F7D8284670BD2546FBE75006002010B504461820FCF711FB0721C90288436107890C01431820FCF70EFB10BD10B50446E020FFF772FB20782246401CC3B2FC
:406B00000021E020FCF78CFA10BD000010B5044641790079042817D040000843A17B032901D8C9000843617B4A010243A079010207201143C00201431820FCF7E5FA21881D
:406B40001C20FCF7E1FA10BD08460149E5E700000204000010B50120FFF78EFA41210020FCF7D2FA10BD10B50120FFF7B1FA40210020FCF7C9FA10BD10B50C460146B020A9
:406B8000FCF7C2FAFF2021460D30FCF7BDFA10BD70B50C4601461E461546B020FCF7B4FAE92021468000FCF7AFFA75202946C000FCF7AAFAEB2031468000FCF7A5FA6C43D4
:406BC0003B20A1B20001FCF79FFA70BD70B50C4601461546B020FCF797FA21468420FCF793FA29468020FCF78FFA70BD10B504464078217800020143FF20C130FCF784FA56
:406C0000E078A17800020143FF20C530FCF77CFA6079217900020143FF20C930FCF774FA10BD70B5A124054624012046FCF766FA012D07D041084900814202D02046FCF789
:406C400063FA70BD014601221143F5E710B5044640782178000201436820FCF755FAE078A178000201436C20FCF74EFA60792179000201437020FCF747FA10BD10B50446A9
:406C800040782178000201435820FCF73DFAE078A178000201435C20FCF736FA60792179000201436020FCF72FFA10BD10B50446E820FFF793FA20782246401CC3B2002197
:406CC000E820FCF7ADF910BD10B50C460146B020FCF71AFA21460248FCF716FA10BD00001C0A000010B50C460146B020FCF70CFAFF2021460530FCF707FA10BD70B5054637
:406D000088000521FBF79CFB84B22946B020FCF7FBF921460448FCF7F7F9290272310020FCF7F2F970BD0000040A000010B504460146B020FCF7E8F9210273310020FCF74F
:406D4000E3F910BD10B504460146B020FCF7DCF9210270310020FCF7D7F910BD10B504460146B020FCF7D0F9210271310020FCF7CBF910BDF8B505461E4614460F46084664
:406D800000F098F800902802A1000843304304462946B020FCF7B8F921460098FCF7B4F90148C0194655F8BDCF02002010B50446B820FCF7A3F98005800DA102014389B261
:406DC000B820FCF7A1F910BD70B50D460146B020FCF79AF9FF241D342046FCF78FF940218843A90101432046FCF78EF970BD70B5A124054624012046FCF780F90222002D53
:406E000001D0104300E0904301462046FCF77CF970BD70B50D460146B020FCF775F9FF2029460930FCF770F9A12424012046FCF765F90222002D01D0104300E09043014616
:406E40002046FCF761F970BD70B50C460546FCF755F9204301462846FCF756F970BDF8B516460D460746FCF749F9014600202C0003D104E06408401C80B2E207FAD086400C
:406E8000A9430E43B1B23846FCF73EF9F8BD0000024A1018405C8007800F7047CF02002010B50146B020FCF72FF9FF202D30FCF725F910BD8000FF30413070470246FF2078
:406EC000052902D201484018805C7047CA02002010B50146B020FCF717F9FF202930FCF70DF910BD0A4600B501461046FFF7E6FF00BD38B50C46054600216846009109F036
:406F000021FA002804D1009928464C7000F09EFB38BD10B5044680780021FFF72DFE01212046FFF75BF810BD436E002B0CD00B60014660318B781370826E4266CA788A70BC
:406F40000021816608467047FF20704710B50346446E6033002C04D0846E002C04D0FF2010BD41669A7001E08166DA70002010BD0021416681667047406E002801D0002020
:406F80007047FF20704770B50446C0790D46810610D5DF210840E07100F0B6FD0570218941804034218A8180618AC180A18A018101F0F8F970BD000010B50446FEF7ECFDCC
:406FC00001280AD1A1788820054A484380186030007FFDF775FA012801D000F0A5FA10BD6406002070B50D460446FDF711F901281CD02079042801D0072816D1E879AE79FF
:4070000000020643A0783146FFF7ACFA012813D03246691C204600F035FA02212046FDF73EFE01212046FEF7D9FF70BD01222421204600F0C3FA70BD28214C2001552046F8
:40704000FEF77CF970BD70B50D460646FDF7BDFD002847D120213046FDF71DFB3446687840346073E87820220002E081A9780843E0816879010228790843218A814203D080
:40708000F1791143F1712082E8790102A8790843618A814203D0F1791143F1716082687A0102287A0843A18AE180814203D0F1791143F171A082A08A218A8000FBF7C0F985
:4070C000401E618A80B2814200D9608201213046FDF7E8FDE87AA97A000201430022304600F0DCFA70BD0000F8B50C460546FDF78FF8012849D0294EB07AC00709D028461A
:40710000403000900078002805D0102805D01F212EE01A212CE0002700E001272846FEF7EBF9002823D02E4680360822611C7068FBF7B7FA7068617A20300172A17A417217
:4071400070682146183008220B31FBF7AAFA21462846042213313430FBF7A3FA39462846FDF7ACFF002810D1002F0FD012E007210322284600F022FAF28A08212846FDF7F7
:407180007FFA11212846FDF790FDF8BD06212846FDF78EFD009801210176F8BD1006002010B5FDF7CBFF10BD38B504460020009020790D46042801D007281BD12046FDF7BB
:4071C00027F8012817D0684609F0BCF8002811D10C486A78807A00991040112210402075607E082210436076204600F079F92046FDF7A1FD38BD08222421204600F0DEF948
:4072000038BD0000100600207047000070B506460D460846FEF74CF804463046FEF7B1FC00280CD0142C04D32946304600F0C7F805E00549A0000A582946304690472846B1
